:020000040800F2
:1000000000000120892E0008292A00082B2A000858
:100010002D2A00082F2A0008312A000800000000BD
:10002000000000000000000000000000332A00086B
:10003000352A000800000000372A0008392A000885
:10004000D12E0008D12E0008D12E0008D12E000894
:10005000D12E0008D12E0008D12E0008D12E000884
:10006000D12E0008D12E0008D12E0008D12E000874
:10007000D12E0008D12E0008D12E0008D12E000864
:10008000D12E0008D12E0008D12E0008D12E000854
:10009000D12E0008D12E0008D12E0008D12E000844
:1000A000D12E0008D12E0008D12E0008D12E000834
:1000B000D12E0008D12E0008D12E0008D12E000824
:1000C000D12E0008D12E0008D12E0008D12E000814
:1000D000D12E0008D12E0008D12E0008D12E000804
:1000E000D12E0008D12E0008D12E000800000000FB
:1000F0000000000000000000000000000000000000
:100100000000000000000000D12E0008D12E0008E1
:10011000D12E0008D12E0008D12E0008D12E0008C3
:10012000D12E0008D12E0008D12E0008D12E0008B3
:10013000D12E0008D12E0008D12E0008D12E0008A3
:10014000D12E0008D12E0008D12E00083D2A00082B
:10015000000000000000000000000000000000009F
:10016000000000000000000000000000000000008F
:10017000000000000000000000000000000000007F
:10018000000000000000000000000000000000006F
:10019000000000000000000000000000000000005F
:1001A000000000000000000000000000000000004F
:1001B000000000000000000000000000000000003F
:1001C000000000000000000000000000000000002F
:1001D000000000000000000000000000000000001F
:0401E0005FF8E0F1F3
:1001E40010B5054C237833B9044B13B10448AFF36D
:1001F40000800123237010BD7C010020000000005A
:100204002C2F000808B5034B1BB103490348AFF377
:10021400008008BD00000000800100202C2F000891
:1002240053B94AB9002908BF00281CBF4FF0FF3159
:100234004FF0FF3000F07AB9ADF1080C6DE904CE4F
:1002440000F006F8DDF804E0DDE9022304B07047AD
:100254002DE9F0478C460E460446089D002B50D1EC
:100264008A4217466CD9B2FA82FEBEF1000F0BD057
:10027400CEF1200C01FA0EF620FA0CFC02FA0EF76D
:100284004CEA060C00FA0EF43A0CBCFBF2F9BBB2D1
:1002940002FB19CC09FB03FA4FEA144848EA0C465E
:1002A400B2450AD9F61909F1FF3180F02581B2452A
:1002B40040F22281A9F102093E44A6EB0A06B6FBEC
:1002C400F2F002FB106600FB03F3A4B244EA064416
:1002D400A34209D9E41900F1FF3280F00B81A34253
:1002E40040F2088102383C440021E41A40EA094003
:1002F400002D62D0002324FA0EF42C606B60BDE85C
:10030400F0878B4207D9002D55D0002185E84100A4
:100314000846BDE8F087B3FA83F1002940F08F80E6
:10032400B34202D3824200F2FC80841A66EB0306D5
:100334000120B446002D40D085E81010BDE8F087B8
:1003440012B90127B7FBF2F7B7FA87FEBEF1000F27
:1003540035D10121F61B4FEA174C1FFA87F8B6FB7B
:10036400FCF20CFB126608FB02F0230C43EA06467F
:10037400B04207D9F61902F1FF3302D2B04200F2BB
:10038400D2801A46361AB6FBFCF00CFB106608FB4A
:1003940000F8A3B243EA0644A04507D9E41900F1E2
:1003A400FF3302D2A04500F2B9801846A4EB08043A
:1003B40040EA02409CE729462846BDE8F08707FA50
:1003C4000EF7CEF1200326FA03F24FEA174CB2FBE4
:1003D400FCF11FFA87F80CFB112206FA0EF620FA3C
:1003E40003F301FB08F933431E0C46EA0246B14508
:1003F40000FA0EF409D9F61901F1FF3280F08C806D
:10040400B14540F2898002393E44A6EB0906B6FBA9
:10041400FCF00CFB106200FB08F99EB246EA0246AF
:10042400B14507D9F61900F1FF3371D2B1456FD93F
:1004340002383E44A6EB090640EA01418FE7C1F1C8
:10044400200722FA07F88B4048EA030326FA07F448
:100454004FEA134EB4FBFEF91FFA83FC0EFB19445A
:100464008E4020FA07F809FB0CFA48EA06084FEA1E
:10047400184646EA0444A24502FA01F200FA01F6DB
:1004840008D9E41809F1FF3044D2A24542D9A9F1B0
:1004940002091C44A4EB0A04B4FBFEF00EFB104456
:1004A40000FB0CFC1FFA88F848EA0444A44507D969
:1004B400E41800F1FF3E29D2A44527D902381C4490
:1004C40040EA0940A0FB0289A4EB0C0CCC45C246CF
:1004D400CE4615D312D055B1B6EB0A036CEB0E061B
:1004E40006FA07F7CB401F43CE402F606E60002111
:1004F400BDE8F0871046F7E68946DEE64645EAD2CF
:10050400B8EB020A69EB030E0138E4E77046D7E75B
:1005140018468FE78146BDE7114676E702383C442A
:1005240044E7084606E7023A3E442BE7704700BF1B
:1005340038B50E4B054618784FF47A73B3FBF0F3D5
:100544000B4A1068B0FBF3F000F0A0F8044658B969
:100554000F2D09D8024629464FF0FF3000F054F819
:10056400044B20461D6038BD012038BD000000202A
:100574001801002004000020074A08B5136803206E
:1005840043F01003136000F02DF80020FFF7D0FFB4
:1005940002F026FA002008BD00200240034A044B62
:1005A40011681B780B441360704700BFBC03002024
:1005B40000000020014B1868704700BFBC030020F6
:1005C40038B50446FFF7F6FF0546631C1EBF044B0F
:1005D4001B78E418FFF7EEFF401B8442FAD838BDBD
:1005E40000000020074A0002D36800F4E06023F40E
:1005F400E0631B041B0C43F0BF6343F40033034369
:10060400D360704700ED00E0174B30B5DC68C4F3ED
:100614000224C4F10703251D042B28BF0423062D3F
:100624004FF0010598BF002405FA03F303F1FF33EB
:1006340088BF033C1940A14005FA04F4013C224060
:10064400002842EA01024FEA0212A9BF00F1604009
:10065400064BD2B200F56140BBBF00F00F00D2B22E
:1006640080F800231A5430BD00ED00E014ED00E0E2
:10067400002808DB0123420900F01F0003FA00F000
:10068400014B43F82200704700E100E00138B0F16B
:10069400807F0AD2F021064B064A586082F8231064
:1006A4000020072298601A6070470120704700BF3D
:1006B40010E000E000ED00E0F0B504468BB060B35C
:1006C40090F8BD33056803F0FF021BB980F8BC2322
:1006D40002F032FA032384F8BD33EB6B25466E46F1
:1006E40013F4807355F8100B08BF236101F084F8EC
:1006F4000FCD0FC60FCD0FC695E80300254686E83B
:100704000300271D97E80E0055F8100B00F0C8FFF2
:10071400064620B1022384F8BD33012550E001468A
:10072400206801F06FF830464FF0010C1C2601469A
:10073400D4F804E0C2B2964500F101001CD80023AD
:100744001C261946D8B2864503F1010322D86E4609
:100754000FCD0FC60FCD0FC695E8030086E8030042
:1007640097E80E00206801F08FF80123054600B3D6
:10077400022284F8BD23D0E706FB024383F83DC080
:1007840083F83C20A3F8422083F83F10596499640D
:100794001965CFE706FB004282F8FD1182F8FC01DF
:1007A40082F8FF11C2F80412C2F80812C2F810123B
:1007B400C8E784F8380084F8BD33206801F02DFBC5
:1007C40028460BB0F0BD90F8BC3310B5012B04469D
:1007D4000CD0012380F8BC33006801F012FB2068C0
:1007E40001F004F8002084F8BC0310BD022010BD01
:1007F4002DE9F04F056885B00446284601F048FB12
:100804000090002840F01981206801F012FB0028B4
:1008140000F01381206801F00CFB830748BF2268B5
:10082400206842BF536903F00203536101F001FBE6
:10083400070300F10581206801F0FBFA46030CD59B
:10084400206801F002FB264683464FF0000A05F5B6
:100854001069BBF1000F40F05481206801F0E9FAFF
:1008640000280DDAD5F80438204623F00103C5F832
:10087400043802F0C3F92268536903F0004353615A
:10088400206801F0D6FA00050BD5D5F80838D90749
:1008940002D5204602F09AF92268536903F40063F2
:1008A4005361206801F0C5FAC20434D505F5006629
:1008B4007368102123F001037360206800F0BAFF0D
:1008C4004FF67F31606805F51063009A824240F06C
:1008D4009681F36943F00113F361236B002B00F05D
:1008E400A181D6F8843043F00B03C6F88430736CCE
:1008F40043F00B037364D5F8003804F5717123F4E5
:10090400FE63C5F80038206801F0D6FA22685369FE
:1009140003F480535361206801F08BFA830416D5E5
:10092400206801F0B9FA206801F044F8E060266814
:1009340000F0DAFD227B0146304600F0E3FE20465B
:1009440002F032F92268536903F4005353612068BA
:1009540001F06FFAC7062AD52268936923F01003C1
:1009640093612E6AC6F34343022B06F00F0740F04F
:10097400648147F6F0731E4214D01C2303FB07471F
:10098400C6F30A163246D7F80812284601F0C6F90B
:10099400D7F808323344C7F80832D7F814321E4463
:1009A400C7F814622268936943F0100393612068C6
:1009B40001F03FFA060707D5204602F0F1F8226855
:1009C400536903F008035361206801F032FAC50249
:1009D40008D50021204602F019F92268536903F46E
:1009E40080135361206801F024FA800208D50021A5
:1009F400204602F007F92268536903F40013536197
:100A0400206801F016FA410007D5204602F002F9E9
:100A14002268536903F080435361206801F009FAA6
:100A240042070AD523685D686B0702D5204602F0A9
:100A3400F5F823685A6815435D6005B0BDE8F08F8A
:100A4400206801F0FAF9002780464FF02009DFF80A
:100A540008A205F53066B8F1000F3FF4ECAE18F0CB
:100A6400010F40D0FAB211462068019201F0F5F965
:100A740010F0010F8346019A0FD00121B160216863
:100A8400086C01F5306101EB471150458B6833D197
:100A940018042DD54FF400428A601BF0080F12D0C1
:100AA4002268116C02F5306202EB471251459068DE
:100AB40004D1010444BF4FF400419160204602F088
:100AC40058F80822B2601BF0100F1CBF1022B2604D
:100AD4001BF0200F18BFC6F808901BF4005F1CBF62
:100AE4004FF40053B36001374FEA58082036B2E799
:100AF400980648BFC1F808901146204602F03FF816
:100B0400CBE71BF0010F72D05FFA8AF31946206815
:100B1400019301F0ABF9C307074610D50120D5F8BE
:100B240034380AF00F0200FA02F223EA0203C5F88D
:100B340034380199C9F80800204602F029F838072A
:100B440044BF0823C9F80830F90644BF1023C9F884
:100B540008307A0644BF4023C9F80830BB0744BFB5
:100B64000223C9F808303F0641D5736D376DBB4287
:100B74003DD8FF1A736C22689F4228BF1F4602F5B6
:100B84001063033703EB4A130292BF080393039BDA
:100B9400726D9B699BB2BB42336D26D3934224D9B9
:100BA40063B90120029B0AF00F01D3F8342800FA3C
:100BB40001F122EA0102C3F8342818E0A3EB020889
:100BC400736C019A984528BF9846B16C1FFA88F354
:100BD400029800F0DDFFB36C08F103074344B364EB
:100BE400736DBF0843447365D1E79342D9D90AF1C1
:100BF400010A4FEA5B0B1C3609F1200929E69960CA
:100C04001A68203322F4001243F8202CC3F8E811A8
:100C1400D3F8E02122F40012C3F8E021009A013253
:100C2400009252E6736943F4005343F02B0373615B
:100C3400336943F00B0333615DE6062B7FF4B2AEF8
:100C4400082204F57171284601F068F81C23C6F3E4
:100C54000A1603FB0747A0E60A31544F90F8BC2359
:100C640010B5012A04460BD0012280F8BC2384F875
:100C74003810006801F0B5F8002084F8BC0310BDFA
:100C8400022010BD70B505461C2001F00F0411F0C0
:100C9400800F00FB04F01FD0012600F13C01284422
:100CA400294480F83D608A604A78E4B20C70CB70C5
:100CB40002B1CC80022B04BF00230B7195F8BC3326
:100CC400012B11D00123286885F8BC3300F07CFE89
:100CD400002085F8BC0370BD002600F5FE71284491
:100CE400294480F8FD61DEE7022070BD1C2301F079
:100CF4000F0211F0800F10B503FB02F3044615D068
:100D040003F13C0101440344012083F83D000A70CF
:100D140094F8BC33012B11D00123206884F8BC3330
:100D240000F094FE002084F8BC0310BD03F5FE71AE
:100D340001440344002083F8FD01E8E7022010BDCC
:100D440038B51C2401F00F056C4304F5FE7104440E
:100D5400C4F8103200230144C4F80822C4F8143241
:100D640084F8FD3184F8FC5100681DB900F0A0FE40
:100D7400002038BD00F01CFFFAE71C2301F00F012E
:100D840003FB0101D1F81402704738B51C2401F0AB
:100D94000F056C4304F13C0104442365002363659F
:100DA40001230144A26484F83D3084F83C50006877
:100DB4001DB900F07DFE002038BD00F0F9FEFAE711
:100DC40038B5436801F00F059D4204462BD811F055
:100DD400800F4FF01C031DD001226B4303F13C0133
:100DE4000344014483F83D2001230D708B7094F873
:100DF400BC239A4219D084F8BC33206800F09CFFCD
:100E040025B904F57171206801F056F8002084F8C2
:100E1400BC0338BD00224B4303F5FE710344014477
:100E240083F8FD21E0E7012038BD022038BD38B544
:100E3400436801F00F029A42044625D81C2311F09E
:100E4400800F03FB02F317D003F13C010144034478
:100E5400012083F83D0000250A708D7094F8BC339E
:100E6400012B13D00123206884F8BC3300F090FFD9
:100E740084F8BC53284638BD03F5FE71014403448D
:100E8400002083F8FD01E6E7012038BD022038BDCB
:100E940070B50468636A21B943EA0243A36200207F
:100EA40070BDA06A4D1E03EB10430020461CC0B267
:100EB400854206D83F3143EA024304EB8104636070
:100EC400EDE7403004EB8000406803EB104330460C
:100ED400ECE7036800205962704700002DE9F341F4
:100EE400044618B9012002B0BDE8F0810368DB07AD
:100EF40014D423689F075FD42368190700F19680F0
:100F040023685A0700F1C080E26A002A40F02E816B
:100F1400226A002A40F081810020E4E78E4D6B684C
:100F240003F00C03042B07D06B6803F00C03082BAD
:100F340009D16B68DE0306D52B689D03D9D5A36858
:100F4400002BD6D1CEE7A368B3F5803F10D12B6830
:100F540043F480332B60FFF72DFB06462B68980380
:100F6400C7D4FFF727FB801B6428F7D90320BAE70F
:100F74009BB92B6823F480332B602B6823F48023E4
:100F84002B60FFF717FB06462B689903B1D5FFF7D3
:100F940011FB801B6428F7D9E8E7B3F5A02F2B6871
:100FA40003D143F480232B60D1E723F480332B60F7
:100FB4002B6823F48023CDE7674D6B6813F00C0F87
:100FC40007D06B6803F00C03082B10D16B68DA03AD
:100FD4000DD42B689B0702D56369012B82D12B6842
:100FE400A26923F0F80343EAC2032B6084E7626931
:100FF4005A4B6AB101221A60FFF7DCFA06462B68E5
:101004009F07ECD4FFF7D6FA801B0228F7D9ADE787
:101014001A60FFF7CFFA06462B6898077FF56CAF86
:10102400FFF7C8FA801B0228F6D99FE7E2694A4D08
:101034004B4BDAB101221A60FFF7BCFA06466B6A21
:101044009B070DD54FF4FA52464B1B68B3FBF2F3E2
:10105400019300BF019B5A1E0192002BF9D14FE767
:10106400FFF7A8FA801B0228E9D97FE71A60FFF787
:10107400A1FA06466B6A9F077FF542AFFFF79AFA1B
:10108400801B0228F6D971E7334DEB69DE0024D4C6
:101094000127EB6943F08053EB61EB6903F0805364
:1010A4000093009B304E3368D80518D52369012B73
:1010B40026D12B6A43F001032B62FFF77BFA41F23E
:1010C400883680462B6A9A073FD5002F3FF41CAF21
:1010D400EB6923F08053EB6116E70027E2E73368FE
:1010E40043F480733360FFF765FA80463368D905AB
:1010F400DCD4FFF75FFAA0EB08006428F6D935E7E3
:10110400ABB92B6A41F2883823F001032B622B6AB6
:1011140023F004032B62FFF74DFA06462B6A9B0764
:10112400D3D5FFF747FA801B4045F7D91EE7052BB7
:101134002B6A03D143F004032B62BAE723F00103C3
:101144002B622B6A23F00403B6E7FFF733FAA0EB14
:101154000800B042B6D909E700100240000042423C
:10116400800442421801002000700040584D6B6812
:10117400D80308D56B6803F00C03082B03D1EB6A82
:10118400D9033FF5AFAE022A33D12B68DA0006D576
:10119400EB6A626B03F0F00393427FF4A3AE002387
:1011A4004C4E3360FFF706FA07462B681B011AD42E
:1011B400EB6A626B23F0F0031343EB62EB6A226B7E
:1011C40023F470631343EB6201233360FFF7F2F9F6
:1011D40006462B681F013FF59BAEFFF7EBF9801B1A
:1011E4006428F6D9C2E6FFF7E5F9C01B6428DCD908
:1011F400BCE60022EB6A23F48033EB62354B1A60C1
:10120400FFF7D8F906462B6818017FF581AEFFF782
:10121400D1F9801B6428F6D9A8E62D4B59681D46E0
:1012240001F00C01082941D000232B4E022A33601F
:101234002FD1FFF7BFF907462B68990123D4636ABE
:10124400B3F5803F09D1EA6A61680A43EA62EA6A4F
:10125400E16822F00F020A43EA62A16A6A680B435A
:1012640022F4741213436B6001233360FFF7A2F975
:1012740004462B689A013FF54FAEFFF79BF9001B1C
:101284000228F6D972E6FFF795F9C01B0228D3D9D4
:101294006CE6FFF78FF904462B689B017FF53CAEA3
:1012A400FFF788F9001B0228F6D95FE6012A3FF40C
:1012B40019AE5868636A00F480329A427FF412AE21
:1012C400A36A00F47010C01A18BF01200BE600BF17
:1012D400001002406800424260004242F0B589B00A
:1012E4006A462C4B03F108051446186859680833FC
:1012F40003C4AB422246F7D118689B882060A380C0
:10130400254B04AC03F110052246186859680833CC
:1013140003C2AB421446F7D120494B6803F00C02D8
:10132400042A35D0082A02D01D4809B0F0BDC3F301
:10133400834208A80244DB0312F8206C25D5CB6A4B
:1013440003F00F03034413F8102CCB6A13F4803F0B
:10135400144B15D0CF6ACC6AC4F303240234A4FB23
:101364000645A4FB030103FB0511C7F30313013373
:10137400A3FB0223FEF754FF0D2ED6D14008D4E779
:1013840003FB06F0B0FBF2F0F6E707487043CCE746
:101394000448CAE7442F0008522F000800100240F6
:1013A40000127A0040787D0100093D002DE9F041EA
:1013B4000D46044610B90120BDE8F081454A136882
:1013C40003F007038B4229D321688E0731D4CA075F
:1013D40044D4404A136803F007039D4267D322684C
:1013E4003D4D12F0040F6ED1130706D56B682269C8
:1013F40023F4605343EAC2036B60FFF76FFF6B682B
:10140400364AC3F30313D35CD840354B1860354BCD
:101414001868FFF78DF80020BDE8F081136823F009
:1014240007030B431360136803F007039942C2D107
:10143400CAE7294B11F0040F1EBF5A6842F4E06258
:101444005A60080742BF5A6842F460525A605A68A8
:10145400A06822F0F00202435A60B8E762681E4EA8
:10146400012A33681BD113F4003FA4D0736841F2FE
:10147400883823F0030313437360FFF79BF8074690
:101484007368626803F00C03B3EB820FA1D0FFF71B
:1014940091F8C01B4045F3D90320BDE8F081022A2E
:1014A40002D113F0007FE0E713F0020FDDE71368C9
:1014B40023F007032B431360136803F007039D42D3
:1014C4007FF479AF8BE76B68E16823F4E0630B4347
:1014D4006B6089E70020024000100240622F000880
:1014E4001801002004000020014B1868704700BF59
:1014F4001801002003682DE9F34113F0010F05469C
:10150400574C1FD0E369DA0047D40127E36943F05D
:101514008053E361E36903F080530193019B514ECF
:101524003368DB053BD5236A13F440734BD1236A3C
:101534006A6823F44073134323621FB1E36923F001
:101544008053E3612A68930705D56368A96823F487
:1015540040430B436360570705D5E36AE96823F406
:1015640000330B43E362160705D5E36A2A6923F4C3
:1015740080231343E362E36A980366D4E36A59035E
:1015840063D4286810F010001AD06368EA6923F461
:10159400800313436360002012E00027BFE7336831
:1015A40043F480733360FFF705F880463368D80549
:1015B400B9D4FEF7FFFFA0EB08006428F6D9032096
:1015C40002B0BDE8F0816A6802F440729342AED082
:1015D4000120254A236A1060002023F44071106022
:1015E4002162D907A3D5FEF7E5FF41F28838064604
:1015F400236A9A079BD4FEF7DDFF801B4045F7D989
:10160400DDE72368A96913F0806F04D0E26A02F071
:10161400F0028A4222D1E36A23F0F0030B43E3622F
:10162400E36A6A6923F4704313430122E3620F4BB4
:101634001A60FEF7BFFF064623689A00A1D4FEF79E
:10164400B9FF801B6428F7D9B9E72368DB00D8D534
:10165400E36A6A6903F47043934292D00120AFE7CE
:1016640000100240007000404004424270004242B8
:101674000A4B013B01D1032070470269002AF8DAC2
:101684000369064A43F001030361013AF3D0036995
:1016940013F00103F9D11846704700BF410D030050
:1016A40084B038B505AD85E80E000A9B0446012BCD
:1016B40019D1836B23F480338363C36823F48403D5
:1016C40023F04003C360C36823F44013C360119B39
:1016D400012B02BFC36843F48013C360BDE83840E4
:1016E40004B0FFF7C5BFC36843F04003C360FFF70E
:1016F400BFFFA36B43F48033A363BDE8384004B059
:1017040070470000022A58D12E4B2F4A0B449342B3
:1017140047D92E4B2E4A0B44934244D9A1F5740366
:101724002C4AA3F5105393423FD9A1F1837302F5D8
:10173400C332A3F5E743A032934238D9264B274A54
:101744000B44934235D9264B02F592220B4402F501
:10175400787293422FD9234B02F5C3220B4402F52E
:101764002072934229D9A1F1B77302F5B712A3F5F8
:10177400585302F55872934221D91B4B02F5122299
:101784000B4402F5F862934294BF07230623C26810
:1017940022F47052C260C26842EA8323C36000200C
:1017A40070470F23F3E70E23F1E70D23EFE70C2334
:1017B400EDE70B23EBE70A23E9E70923E7E708232F
:1017C400E5E700BF405327FFFF340C00401E1BFF1A
:1017D4003F420F007F4F120060B6E5FE5FE3160044
:1017E40000D3CEFEC05BB3FEE05459FE836843F0E1
:1017F4000103836000207047836823F00103836042
:101804000020704708B5C368012923F0C043C360B2
:1018140008D1C36843F00053C3603220FEF7D0FE02
:10182400002008BD19B9C36843F08043F4E70120E0
:1018340008BD0000890141F02001064A0161013A16
:1018440005D0036913F02003F9D11846704703202B
:10185400704700BF410D03001023064A0361013A9B
:1018640005D0036913F01003F9D11846704703201B
:10187400704700BF410D0300D0F800381943C0F889
:10188400001800207047000084B02DE9F0410446A0
:1018940007A880E80E0000230E46194603F1400213
:1018A400013304EB82020F2B5160F7D1A36B204666
:1018B40043F40023A363C4F8001ED4F800380321C2
:1018C400C4F80038FFF7D8FF10212046FFF7B2FF15
:1018D4000146204604F50065FFF7BEFF002841D10C
:1018E400081C18BF012000234FF0904719464FF001
:1018F400006E4FF67F3C2B6104F510626B61EB6167
:10190400B34231D100214FF090470E464FF0006EA4
:101914004FF67F3C04F530628B4237D12B6923F4B8
:1019240080732B610023A3616FF080436361A3691B
:1019340043F01003A361A2691D4B1343A3610D9BE4
:101944001BB1A36943F00803A361119B012B01BFE1
:10195400A36943F0804343F00403A361BDE8F0416D
:1019640004B070470120BEE7D2F80080B8F1000F40
:101974000ADA3BB9C2F800E011610133C2F808C0C9
:101984002032BDE71760F7E71160F5E7D2F8008071
:10199400B8F1000F0ADA39B9C2F800E01661013172
:1019A400C2F808C02032B7E71760F7E71660F5E71A
:1019B40000383C80D0F8083800F5006013F0020FBE
:1019C40014BF02200F207047F0B54C780E78012C1C
:1019D40000F5006506F00F034FEA46121BD1EF69CC
:1019E4009C403C431044EC61D0F800391A0410D4F4
:1019F4008B68C978C3F30A0343F0805343F400436C
:101A0400D0F8002943EA814343EA86531343C0F8DC
:101A140000390020F0BD4FF48034EE699C4034431B
:101A2400EC611044D0F8003B1B04F2D48B68C978F5
:101A3400C3F30A0343F08053D0F8002B43F400436C
:101A440043EA81431343C0F8003BE2E730B54B78E7
:101A54000A78012B00F5006102F00F05CC6B4FEA08
:101A640042120FD1AB40DB431C40CC63CC6902442F
:101A74002340CB61D2F800190B4B0B40C2F800395C
:101A8400002030BD4FF48033AB40DB431C40CC63BB
:101A9400CC6902442340CB61D2F8001B034B0B40BA
:101AA400C2F8003BECE700BF007833EC0078F3EFBA
:101AB40070B54B780A78012B4D694FEA4212334EC8
:101AC40044D1831845BBD3F8104924F0FF5424F4BF
:101AD400C014C3F81049D3F8104944F40024C3F8DF
:101AE4001049D3F810492640C3F810690244D2F8CB
:101AF400003943F00443C2F800394B6953B10B7801
:101B040000F5006203F00F010123D0F834088B4084
:101B140003435363002070BD03F510631C69264022
:101B24001E611C6924F0FF5424F4C0141C618C68E9
:101B3400A54288BF4C611C6944F400241C614C69B3
:101B44001D69C4F312042C431C61CFE7024402F55F
:101B54003063186930401861186920F0FF5020F490
:101B6400C0101861886805B148611969C0F3120092
:101B740041F400211961196908431861D2F8003B46
:101B840043F00443C2F8003BC4E700BF0000F8FF81
:101B9400033300EB023223F0030302F580520B44BB
:101BA400994201D10020704751F8040B1060F7E707
:101BB400F8B54B780A78012B4FEA42124B69554F1E
:101BC40069D153BB8418D4F8105925F0FF5525F476
:101BD400C015C4F81059D4F8105945F40025C4F8B8
:101BE4001059D4F810592F40C4F810790244D2F88F
:101BF400004944F00444C2F80049CC78012C37D0A1
:101C04004BB10B78D0F8344803F00F020123934012
:101C14002343C0F834380020F8BD8618D6F810499C
:101C24008D683C40C6F81049D6F8104906F5106690
:101C340024F0FF5424F4C01434615C19013CB4FB57
:101C4400F5F5354C376904EAC5443C4334613569DC
:101C5400C3F312042C433461CC78012CC6D134690B
:101C640024F0C0443461346944F000543461BDE765
:101C7400D0F808489BB214F4807FD2F800490CBF16
:101C840044F0005444F08054C2F800490A78C9680A
:101C9400FFF77EFFBFE7024402F530652C693C4044
:101CA4002C612C6924F0FF5424F4C0142C618C683A
:101CB400FBB92B69C4F312041C432C612B6943F454
:101CC40000232B61CB78012B0CD1D0F8083813F406
:101CD400807FD2F8003B0CBF43F0005343F08053A5
:101CE400C2F8003BD2F8003B43F00443C2F8003B87
:101CF40091E72344013BB3FBF4F3074E2F6906EA53
:101D0400C3469BB263433E432E612E69C3F3120361
:101D14003343D6E70000F8FF0000F81F033222F037
:101D240003020A4400F58050914201D108467047ED
:101D3400036841F8043BF7E74A780B78012A4FEA35
:101D44004312104412D1D0F80029002A06DB2BB12B
:101D5400D0F8003923F08043C0F80039D0F80039B6
:101D640043F40013C0F8003900207047D0F8002B6A
:101D7400002A06DB2BB1D0F8003B23F08043C0F8E7
:101D8400003BD0F8003B43F40013C0F8003BEBE702
:101D94000B784A785B01012A184411D1D0F8003934
:101DA40023F40013C0F80039CB78023B012B05D88B
:101DB400D0F8003943F08053C0F800390020704750
:101DC400D0F8003B23F40013C0F8003BCB78023B6F
:101DD400012B9EBFD0F8003B43F08053C0F8003B7A
:101DE400ECE7D0F80038090123F4FE63C0F80038AA
:101DF400D0F8003801F4FE611943C0F8001800203F
:101E0400704708B5D0F8043823F00203C0F804384A
:101E14000320FEF7D5FB002008BD08B5D0F8043830
:101E240043F00203C0F804380320FEF7C9FB002086
:101E340008BD4269806910407047D0F8183800F531
:101E44000060C0691840000C7047D0F8183800F5DD
:101E54000060C069184080B2704700EB411100F582
:101E64000060D1F8082B40691040704710B5D0F8D5
:101E74001048D0F8343800EB411001F00F01CB408A
:101E840000F51060DB018068DBB22343184010BD0D
:101E9400406900F001007047D0F8003923F4FF6373
:101EA40023F00703C0F80039D0F8043843F48073F2
:101EB400C0F8043800207047026C0F4B9A4203D9D3
:101EC400D0F8003B002B14DB0023C0F8103BD0F803
:101ED400103B43F40023C0F8103BD0F8103B43F010
:101EE4001803C0F8103BD0F8103B43F0C043C0F8CF
:101EF400103B0020704700BF0A30544FD0F8BC326A
:101F040010B5D0F8B8425BB194F80002FF2807D0AE
:101F14009B6894F8012221469847FF2384F80032F5
:101F2400002010BD43230380004870474000002078
:101F34004323038000487047840000204323038028
:101F440000487047D40000200A23038000487047EB
:101F5400C800002038B50546D0F8B84200F010FF9C
:101F6400D5F8B832C4F80C024BB1D5F8BC3204F53C
:101F74000371DB68D4F804029847002038BD0220BE
:101F840038BDF8B5D0F8B862D6B1142303FB010309
:101F9400DD698DB11C27D0F8C04207FB0142526CA9
:101FA400B5FBF2F402FB145434B9DC612246234637
:101FB40000F0CAFE2046F8BD0020C6F81402F8BDA1
:101FC4000220F8BD2DE9F7434FF000080A780546D2
:101FD40012F060040E46D0F8B8728DF80580ADF8A2
:101FE400068028D0202C47D1CC884B78E4B1120647
:101FF40011D5D0F8BC223946D2F8089018462246AA
:10200400C847F2883946284600F03FFC444620463B
:1020140003B0BDE8F08387F8003287F80142224616
:10202400394600F047FCF1E7D0F8BC221846956821
:102034002246A847EBE74F780A2F0DD00B2F15D077
:10204400D7B990F89C32032B14D102220DF106016A
:1020540000F01BFC3C46DAE790F89C32032B09D1D4
:1020640001220DF1050100F010FCD0E790F89C323C
:10207400032BCCD03146284600F0E0FB0224C6E70F
:1020840038B504460025812100F014FE0121E562E3
:10209400204600F00FFEC4F86C518221204600F067
:1020A40009FED4F8B83225644BB1D4F8BC325B686D
:1020B4009847D4F8B80200F06BFEC4F8B852002078
:1020C40038BD037C2DE9F0410446CBBB4FF40073CB
:1020D40002228121012500F0DDFD4FF40073E56249
:1020E40029460222204600F0D5FDC4F86C51012592
:1020F400082303228221204600F0CCFD25644FF4FE
:10210400077000F041FE0646C4F8B80258B3002731
:10211400D4F8BC321B68984794F81080C6F814723F
:10212400C6F81872B8F1000F13D14FF40073D6F843
:1021340004222946204600F015FE4046BDE8F08101
:10214400012540230222812100F0A4FDE562402301
:10215400C6E74023D6F804222946204600F002FEB2
:102164003846BDE8F0812846BDE8F08119B1C0F8D1
:10217400BC120020704702207047D0F8B83200200B
:10218400C3F80812C3F810227047D0F8B832002000
:10219400C3F804127047D0F8B82210B562B1047CB9
:1021A40044B94FF40073D2F80422012100F0DAFD9F
:1021B400002010BD4023F6E7022010BD08B580B111
:1021C400D0F8B43213B10023C0F8B43209B1C0F866
:1021D400B0120123027080F89C3200F023FD00202D
:1021E40008BD022008BD19B1C0F8B4120020704720
:1021F4000220704708B500F03FFD002008BD08B577
:10220400D0F8B4320BB9022008BD1B6898470028E7
:10221400F9D108BD08B5D0F8B4325B6898470020FE
:1022240008BD38B500F52A750446284600F0F2FAD0
:10223400012394F8A812C4F89432B4F8AE32C4F866
:10224400983201F01F03012B0ED007D3022B10D0BC
:1022540001F08001204600F03BFD03E029462046C2
:1022640000F006F9002038BD2946204600F024FA83
:10227400F8E72946204600F044FAF3E770B505462E
:10228400164649BBD0F89432032B1ED1D0F86031E6
:10229400D0F8642193420BD99B1A9A42C0F860315A
:1022A4008CBF9AB292B2314600F013FB002070BD8D
:1022B400D0F8B4321B6923B190F89C22032A00D1D0
:1022C4009847284600F00DFBF0E7052BEED1C5F842
:1022D400941200F0FDFCE9E7D0F8B4329B692BB10D
:1022E40090F89C22032A01D19847DFE7022070BDB1
:1022F40070B5134604460E46002947D1D0F89422FF
:10230400022A3CD1056A426A954213D9AA1A02628A
:10231400194692B200F0C6FA33461A4619462046C8
:1023240000F020FD94F8A0320020012B3AD184F86B
:10233400A00270BDC369B3FBF2F502FB153565B9A4
:102344009A420AD8D0F89822934206D22A4600F03C
:10235400A9FAC4F898522B46DFE7D4F8B432DB6804
:102364002BB194F89C22032A01D12046984780215E
:10237400204600F0ADFC204600F0BEFAD2E732F071
:102384000403CFD1802100F0A3FCCBE7D0F8B43212
:102394005B6933B190F89C22032A02D1984700204C
:1023A40070BD022070BD002270B504460125402690
:1023B4001146402300F06EFC33468021C4F8585186
:1023C400C4F864610022204600F064FC0021D4F8C3
:1023D400B832A561666284F89C52C4F894126160B4
:1023E400C4F8A41223B1D4F8B43220465B689847E9
:1023F400002070BD01740020704790F89C3280F872
:102404009D32042380F89C320020704790F89C325F
:10241400042B04BF90F89D3280F89C320020704752
:1024240008B590F89C22032A04D1D0F8B432DB69B1
:1024340003B19847002008BD002070470020704772
:1024440000207047012208B580F89C22D0F8B422FD
:10245400017952689047002008BD10B504468021D8
:1024640000F036FC2046BDE81040002100F030BCEE
:1024740037B50B78044603F06003202B0D4612D0C9
:10248400402B10D0002B5CD14B78092B58D8DFE8B7
:1024940013F0E90005015700FE0057008400130003
:1024A4005700D200A000D4F8B43229469B682046D5
:1024B4009847002003B030BD0023ADF806304B88A8
:1024C4001A0A013A062A3BD8DFE802F004202D3A22
:1024D4003A525C00D0F8B0321B680DF10601207C42
:1024E4009847BDF8062052B1EB8843B19A4228BF01
:1024F4001A4601462046ADF8062000F0C6F9EB88DE
:10250400002BD6D1204600F0ECF9D2E7027CD0F8BB
:10251400B43232B99B6A0DF1060098470223437026
:10252400DFE7DB6AF7E7DBB2052B09D8DFE803F066
:10253400030C1014181CD0F8B0325B68002BCCD1FB
:102544002046FFF78AFFB4E7D0F8B0329B68F5E77E
:10255400D0F8B032DB68F1E7D0F8B0321B69EDE7B0
:10256400D0F8B0325B69E9E7D0F8B0329B69E5E7AF
:10257400037C002BE4D1D0F8B4320DF106005B6B80
:102584009847AEE7037C002BDAD1D0F8B4320DF1D2
:1025940006001B6B98470723C1E78B88002BCFD11C
:1025A400CB88002BCCD14D887F2DC9D890F89C3294
:1025B400E9B2032BC4D080F89E1200F0B7FB20468A
:1025C40000F08FF91DB1022384F89C3271E70123D6
:1025D400FAE78978374D01292970B1D890F89C32EF
:1025E400022B08D0032B14D0FFF737FF297820469D
:1025F400FFF710FE5DE7002984D001210323416029
:1026040080F89C322046FFF7FAFD02287FF47AAF67
:1026140096E731B90223416080F89C32FFF7FAFD56
:1026240070E7416801293FF46DAFC9B2FFF7F2FDCD
:1026340029786160E6E7CA88012A81D190F89C3242
:10264400002B3FF47DAF022B04D9032B7FF478AF2A
:10265400011D03E00146002341F8083F204600F035
:1026640014F926E790F89C32013B022B3FF668AF41
:10267400CB88022B7FF464AF0123C360D0F8A4326B
:102684000BB10323C360022204F10C01E6E74B887B
:10269400012B7FF40EAFC4F8A43233E790F89C32D8
:1026A400013B022B3FF64CAF4B88012B7FF401AF6B
:1026B4000023F0E79801002038B50B78044603F0B6
:1026C4006003202B0D4602D0402B00D0B3B994F800
:1026D4009C32013B022B10D82B79012B0DD8D4F856
:1026E400B43229469B6820469847EB881BB910B939
:1026F400204600F0F6F8002038BD2046FFF7ADFE76
:10270400F9E738B50A78044602F06002202A0B463D
:1027140013D0402A11D06AB95D788A88012DD1B2CC
:102724001FD035D3032D05D190F89C22022A26D040
:10273400032A0AD0FFF791FE05E0D4F8B422194623
:10274400926820469047002038BD5A882AB94A0624
:1027540003D0DB880BB900F0BBFA204600F0C1F8C7
:10276400F1E790F89C22022A09D0032AE2D15B887F
:10277400002BE8D14D06F0D000F0B8FAEDE74B0697
:1027840016D000F0A5FA8021204600F0A1FADAE77D
:1027940090F89C32022B0DD0032BCBD1142312F0D2
:1027A400800F01F00F0203FB020214D09269EAB910
:1027B4002046BFE74906FBD113064FF000034FF054
:1027C40002024CBF00F1140100F5AA710B6020460F
:1027D40000F05BF8B7E7D2F85821002AE8D001F0FE
:1027E4007F0503FB050505F5AA7504E001F07F05E7
:1027F40005FB0335054411F07F0303D12B6002224E
:102804002946E4E7204600F07FFA08B10123F5E702
:102814002860F4E70B7803704B784370CA788B78A0
:1028240003EB022343804A790B7903EB0223838071
:10283400CA798B7903EB0223C380704710B5044631
:10284400802100F045FA2046BDE81040002100F048
:102854003FBA30B588B105462B1A15F8014BDBB2E7
:10286400002CF9D101335B0013800B7003234B70F0
:102874000223013810F8015F05B930BD5A1CCD544C
:10288400D2B20233DBB28C54F4E71346022210B501
:10289400C0F89422C3610A460362002100F054FA8E
:1028A400002010BD08B513460A46002100F04CFA7A
:1028B400002008BD1346032210B5C0F89422C0F8C6
:1028C4005C310A46C0F86031002100F04BFA002068
:1028D40010BD08B513460A46002100F043FA002053
:1028E40008BD08B50423C0F8943200231A461946DB
:1028F40000F02AFA002008BD08B50523C0F8943278
:1029040000231A46194600F02DFA002008BD0000E5
:102914000A4B82B09A6942F004029A619A6902F001
:1029240004020092009A9A6942F008029A619B6933
:1029340003F008030193019B02B0704700100240AA
:10294400382270B59CB00DEB0200002100F0E4FACF
:102954001422002101A800F0DFFA0021202206A899
:1029640000F0DAFA4FF4803310930F9317934FF477
:10297400E01318934FF4C0630422022401251A9330
:1029840040230EA811921B930E9513951694199437
:10299400FEF7A4FA0F23002601934FF48063214627
:1029A40001A80493029403960596FEF7FFFC1023F6
:1029B40006A806930D96FEF79DFD024B1D601CB004
:1029C40070BD00BF7000424208B5FDF7D5FDFFF7AA
:1029D400B7FFFFF79DFF00F061F8FEE770470000C6
:1029E4000E4B82B09A6942F001029A619A6902F030
:1029F40001020092009ADA6942F08052DA61DB69DE
:102A0400074A03F080530193019B536823F0E0636A
:102A140043F00073536002B0704700BF00100240DF
:102A2400000001407047FEE7FEE7FEE7FEE770475F
:102A340070477047FDF7B2BD0148FDF7D9BE00BF2E
:102A4400540E0020124B1A6842F001021A605968B1
:102A5400104A0A405A601A6822F0847222F48032C2
:102A64001A601A6822F480221A605A6822F4FE025C
:102A74005A601A6822F0A0521A604FF47F029A60DA
:102A84000022DA624FF00062034B9A60704700BF85
:102A9400001002400000FFF000ED00E008B5002245
:102AA4000E490F48FFF78AFB08B1FFF797FF0D495E
:102AB4000B48FFF798FB08B1FFF790FF0A49084855
:102AC400FFF754FB08B1FFF789FF0548FFF792FBB6
:102AD40018B1BDE80840FFF781BF08BD2C010020F4
:102AE400C0030020080000201C01002000207047C3
:102AF4000020704710B5054C01462046FFF745FB02
:102B04002046FFF748FB002010BD00BFC003002093
:102B140010B5064C002206492046FFF72EFB054956
:102B24002046FFF732FB002010BD00BFC003002089
:102B34006C0A002084060020036807B5B3F1A04F97
:102B440014D103F1704303F504335A69432042F46A
:102B540080525A6100225B69114603F48053019349
:102B6400019BFDF751FD4320FDF782FD03B05DF8A5
:102B740004FB00F57171D0F8FC03FFF752BB1C2372
:102B840003FB0103D0F8FC03D3F80822FFF776BB5C
:102B94001C2303FB0103D0F8FC039A6CFFF7A8BBCA
:102BA400D0F8FC03FFF73CBCC36810B5022B044605
:102BB40001D0FFF713FFD4F8FC030121FFF71AFC3F
:102BC400D4F8FC03BDE81040FFF7EDBB10B5044694
:102BD400D0F8FC03FFF711FC2268D2F8003E43F062
:102BE4000103C2F8003E236A23B1034A136943F088
:102BF4000603136110BD00BF00ED00E0D0F8FC0334
:102C0400FFF704BCD0F8FC03FFF718BCD0F8FC03B2
:102C1400FFF712BCD0F8FC03FFF712BCD0F8FC039A
:102C2400FFF710BC08B5027812BB124B0421C3F89D
:102C3400FC03C0F8C0324FF0A04083E80300022137
:102C44001846D960DA611A62DA62FDF735FD08B117
:102C5400FFF7C4FE80210748FEF73BF9402200211C
:102C64000448FEF715F9802201210248FEF710F905
:102C7400002008BD540E002008B5D0F8C002FDF7AE
:102C8400A2FD03289ABF024B185C022008BD00BFB6
:102C9400722F000810B51C46D0F8C0021346224615
:102CA400FDF7F0FF03289ABF014B185C022010BD0A
:102CB400722F000808B5D0F8C002FEF717F80328F1
:102CC4009ABF024B185C022008BD00BF722F000897
:102CD40008B5D0F8C002FEF773F803289ABF024B78
:102CE400185C022008BD00BF722F000808B5D0F898
:102CF400C002FEF79CF803289ABF024B185C02201E
:102D040008BD00BF722F00081C2211F0800FD0F8FC
:102D1400C0321BBF01F07F0102FB013102FB013114
:102D240091F83E0008BF91F8FE01704708B5D0F84D
:102D3400C002FDF793FF03289ABF024B185C0220E0
:102D440008BD00BF722F000808B5D0F8C002FEF716
:102D54001CF803289ABF024B185C022008BD00BF70
:102D6400722F000808B5D0F8C002FDF7E9FF032868
:102D74009ABF024B185C022008BD00BF722F0008E6
:102D8400D0F8C002FDF7F9BF004870479C0100204D
:102D940070470000122301480B807047480100204F
:102DA400042301480B8070475C010020002330B5E8
:102DB4001D46DCB2A24200D830BD040F092C94BFDA
:102DC4003034373401F8134001EB430400016570DB
:102DD4000133EEE71A2310B50B80094B186808334A
:102DE4001B68C0180AD0074B08221C680649FFF765
:102DF400DDFF042205492046FFF7D8FF044810BD33
:102E0400E8F7FF1FECF7FF1F6201002072010020AA
:102E14006001002010B5044C0A4604482146FFF71F
:102E240018FD204610BD00BF541200208F2F00084B
:102E340010B5044C0A4604482146FFF70AFD204613
:102E440010BD00BF54120020A22F000810B5044C7E
:102E54000A4604482146FFF7FCFC204610BD00BF8B
:102E640054120020762F000810B5044C0A4604487A
:102E74002146FFF7EEFC204610BD00BF541200208F
:102E8400812F0008002103E00B4B5B5843500431B1
:102E94000A480B4B42189A42F6D30A4A02E000232E
:102EA40042F8043B084B9A42F9D3FFF7CBFD00F0FC
:102EB4000FF8FFF789FD7047C82F000800000020B5
:102EC4007C0100207C01002054140020FEE7000057
:102ED40070B500250C4E0D4CA41BA410A54209D1BD
:102EE40000F022F800250A4E0A4CA41BA410A542A7
:102EF40005D170BD56F8253098470135EEE756F8F0
:102F0400253098470135F2E7C02F0008C02F00088C
:102F1400C02F0008C42F000803460244934200D186
:102F2400704703F8011BF9E7F8B500BFF8BC08BC0B
:102F34009E467047F8B500BFF8BC08BC9E46704773
:102F4400000004050607080900000000000D010246
:102F5400030405060708090A0B0C0D0E0F100000E8
:102F64000000000000000102030406070809000233
:102F7400010243444320436F6E6669670043444340
:102F840020496E746572666163650053544D6963CC
:102F9400726F656C656374726F6E6963730053540A
:102FA4004D3332205669727475616C20436F6D50D5
:042FB4006F727400C4
:082FB8009CD2FF7F0100000024
:042FC00009020008FA
:042FC400E50100081B
:102FC8000100000010000000C7200008852000084C
:102FD800C91F000800000000011F0008871F000823
:102FE800591F000800000000000000000000000059
:102FF800351F0008291F0008411F00084D1F000841
:1030080009024300020100C0320904000001020263
:103018000100052400100105240100010424020216
:1030280005240600010705820308001009040100B1
:10303800020A00000007050102400000070581029E
:103048004000000009024300020100C032090400E8
:1030580000010202010005240010010524010001FD
:103068000424020205240600010705820308001053
:1030780009040100020A000000070501020002001D
:1030880007058102000200000A0600020000004055
:103098000100000009074300020104C032090400CE
:1030A80000010202010005240010010524010001AD
:1030B8000424020205240600010705820308001003
:1030C80009040100020A000000070501024000008F
:1030D80007058102400000000024F400152B0008B9
:1030E800F12A0008F52A0008F92A0008992D000895
:1030F800A52D0008192E0008352E0008D92D000826
:10310800512E00086D2E0008120100020202004034
:10311800830440570002010203010000040309046C
:103128001A0300000000000000000000000000007A
:0C3138000000000000000000000000008B
:0400000508002E8938
:00000001FF
